{
  "_format": "hh-sol-artifact-1",
  "contractName": "Shrooms",
  "sourceName": "contracts/SmartContract.sol",
  "abi": [
    {
      "inputs": [
        {
          "internalType": "string",
          "name": "baseURI",
          "type": "string"
        }
      ],
      "stateMutability": "nonpayable",
      "type": "constructor"
    },
    {
      "anonymous": false,
      "inputs": [
        {
          "indexed": true,
          "internalType": "address",
          "name": "owner",
          "type": "address"
        },
        {
          "indexed": true,
          "internalType": "address",
          "name": "approved",
          "type": "address"
        },
        {
          "indexed": true,
          "internalType": "uint256",
          "name": "tokenId",
          "type": "uint256"
        }
      ],
      "name": "Approval",
      "type": "event"
    },
    {
      "anonymous": false,
      "inputs": [
        {
          "indexed": true,
          "internalType": "address",
          "name": "owner",
          "type": "address"
        },
        {
          "indexed": true,
          "internalType": "address",
          "name": "operator",
          "type": "address"
        },
        {
          "indexed": false,
          "internalType": "bool",
          "name": "approved",
          "type": "bool"
        }
      ],
      "name": "ApprovalForAll",
      "type": "event"
    },
    {
      "anonymous": false,
      "inputs": [
        {
          "indexed": true,
          "internalType": "address",
          "name": "previousOwner",
          "type": "address"
        },
        {
          "indexed": true,
          "internalType": "address",
          "name": "newOwner",
          "type": "address"
        }
      ],
      "name": "OwnershipTransferred",
      "type": "event"
    },
    {
      "anonymous": false,
      "inputs": [
        {
          "indexed": true,
          "internalType": "address",
          "name": "from",
          "type": "address"
        },
        {
          "indexed": true,
          "internalType": "address",
          "name": "to",
          "type": "address"
        },
        {
          "indexed": true,
          "internalType": "uint256",
          "name": "tokenId",
          "type": "uint256"
        }
      ],
      "name": "Transfer",
      "type": "event"
    },
    {
      "inputs": [],
      "name": "MAX_ENTRIES",
      "outputs": [
        {
          "internalType": "uint256",
          "name": "",
          "type": "uint256"
        }
      ],
      "stateMutability": "view",
      "type": "function"
    },
    {
      "inputs": [
        {
          "internalType": "address",
          "name": "to",
          "type": "address"
        },
        {
          "internalType": "uint256",
          "name": "tokenId",
          "type": "uint256"
        }
      ],
      "name": "approve",
      "outputs": [],
      "stateMutability": "nonpayable",
      "type": "function"
    },
    {
      "inputs": [
        {
          "internalType": "address",
          "name": "owner",
          "type": "address"
        }
      ],
      "name": "balanceOf",
      "outputs": [
        {
          "internalType": "uint256",
          "name": "",
          "type": "uint256"
        }
      ],
      "stateMutability": "view",
      "type": "function"
    },
    {
      "inputs": [
        {
          "internalType": "uint256",
          "name": "tokenId",
          "type": "uint256"
        }
      ],
      "name": "getApproved",
      "outputs": [
        {
          "internalType": "address",
          "name": "",
          "type": "address"
        }
      ],
      "stateMutability": "view",
      "type": "function"
    },
    {
      "inputs": [],
      "name": "getCurrentPrice",
      "outputs": [
        {
          "internalType": "uint256",
          "name": "",
          "type": "uint256"
        }
      ],
      "stateMutability": "view",
      "type": "function"
    },
    {
      "inputs": [],
      "name": "getCurrentStage",
      "outputs": [
        {
          "internalType": "enum Shrooms.STAGES",
          "name": "",
          "type": "uint8"
        }
      ],
      "stateMutability": "view",
      "type": "function"
    },
    {
      "inputs": [
        {
          "internalType": "address",
          "name": "owner",
          "type": "address"
        },
        {
          "internalType": "address",
          "name": "operator",
          "type": "address"
        }
      ],
      "name": "isApprovedForAll",
      "outputs": [
        {
          "internalType": "bool",
          "name": "",
          "type": "bool"
        }
      ],
      "stateMutability": "view",
      "type": "function"
    },
    {
      "inputs": [
        {
          "internalType": "uint256",
          "name": "_amount",
          "type": "uint256"
        }
      ],
      "name": "mint",
      "outputs": [],
      "stateMutability": "payable",
      "type": "function"
    },
    {
      "inputs": [],
      "name": "name",
      "outputs": [
        {
          "internalType": "string",
          "name": "",
          "type": "string"
        }
      ],
      "stateMutability": "view",
      "type": "function"
    },
    {
      "inputs": [],
      "name": "owner",
      "outputs": [
        {
          "internalType": "address",
          "name": "",
          "type": "address"
        }
      ],
      "stateMutability": "view",
      "type": "function"
    },
    {
      "inputs": [
        {
          "internalType": "uint256",
          "name": "tokenId",
          "type": "uint256"
        }
      ],
      "name": "ownerOf",
      "outputs": [
        {
          "internalType": "address",
          "name": "",
          "type": "address"
        }
      ],
      "stateMutability": "view",
      "type": "function"
    },
    {
      "inputs": [],
      "name": "renounceOwnership",
      "outputs": [],
      "stateMutability": "nonpayable",
      "type": "function"
    },
    {
      "inputs": [
        {
          "internalType": "address",
          "name": "from",
          "type": "address"
        },
        {
          "internalType": "address",
          "name": "to",
          "type": "address"
        },
        {
          "internalType": "uint256",
          "name": "tokenId",
          "type": "uint256"
        }
      ],
      "name": "safeTransferFrom",
      "outputs": [],
      "stateMutability": "nonpayable",
      "type": "function"
    },
    {
      "inputs": [
        {
          "internalType": "address",
          "name": "from",
          "type": "address"
        },
        {
          "internalType": "address",
          "name": "to",
          "type": "address"
        },
        {
          "internalType": "uint256",
          "name": "tokenId",
          "type": "uint256"
        },
        {
          "internalType": "bytes",
          "name": "_data",
          "type": "bytes"
        }
      ],
      "name": "safeTransferFrom",
      "outputs": [],
      "stateMutability": "nonpayable",
      "type": "function"
    },
    {
      "inputs": [
        {
          "internalType": "address",
          "name": "operator",
          "type": "address"
        },
        {
          "internalType": "bool",
          "name": "approved",
          "type": "bool"
        }
      ],
      "name": "setApprovalForAll",
      "outputs": [],
      "stateMutability": "nonpayable",
      "type": "function"
    },
    {
      "inputs": [
        {
          "internalType": "string",
          "name": "baseURI",
          "type": "string"
        }
      ],
      "name": "setBaseURI",
      "outputs": [],
      "stateMutability": "nonpayable",
      "type": "function"
    },
    {
      "inputs": [],
      "name": "sold",
      "outputs": [
        {
          "internalType": "uint256",
          "name": "",
          "type": "uint256"
        }
      ],
      "stateMutability": "view",
      "type": "function"
    },
    {
      "inputs": [
        {
          "internalType": "bytes4",
          "name": "interfaceId",
          "type": "bytes4"
        }
      ],
      "name": "supportsInterface",
      "outputs": [
        {
          "internalType": "bool",
          "name": "",
          "type": "bool"
        }
      ],
      "stateMutability": "view",
      "type": "function"
    },
    {
      "inputs": [],
      "name": "symbol",
      "outputs": [
        {
          "internalType": "string",
          "name": "",
          "type": "string"
        }
      ],
      "stateMutability": "view",
      "type": "function"
    },
    {
      "inputs": [
        {
          "internalType": "address",
          "name": "tokenAddress",
          "type": "address"
        }
      ],
      "name": "toggleWhitelistedAddress",
      "outputs": [],
      "stateMutability": "nonpayable",
      "type": "function"
    },
    {
      "inputs": [
        {
          "internalType": "uint256",
          "name": "index",
          "type": "uint256"
        }
      ],
      "name": "tokenByIndex",
      "outputs": [
        {
          "internalType": "uint256",
          "name": "",
          "type": "uint256"
        }
      ],
      "stateMutability": "view",
      "type": "function"
    },
    {
      "inputs": [
        {
          "internalType": "address",
          "name": "owner",
          "type": "address"
        },
        {
          "internalType": "uint256",
          "name": "index",
          "type": "uint256"
        }
      ],
      "name": "tokenOfOwnerByIndex",
      "outputs": [
        {
          "internalType": "uint256",
          "name": "",
          "type": "uint256"
        }
      ],
      "stateMutability": "view",
      "type": "function"
    },
    {
      "inputs": [
        {
          "internalType": "uint256",
          "name": "tokenId",
          "type": "uint256"
        }
      ],
      "name": "tokenURI",
      "outputs": [
        {
          "internalType": "string",
          "name": "",
          "type": "string"
        }
      ],
      "stateMutability": "view",
      "type": "function"
    },
    {
      "inputs": [],
      "name": "totalMinted",
      "outputs": [
        {
          "internalType": "uint256",
          "name": "",
          "type": "uint256"
        }
      ],
      "stateMutability": "view",
      "type": "function"
    },
    {
      "inputs": [],
      "name": "totalSupply",
      "outputs": [
        {
          "internalType": "uint256",
          "name": "",
          "type": "uint256"
        }
      ],
      "stateMutability": "view",
      "type": "function"
    },
    {
      "inputs": [
        {
          "internalType": "address",
          "name": "from",
          "type": "address"
        },
        {
          "internalType": "address",
          "name": "to",
          "type": "address"
        },
        {
          "internalType": "uint256",
          "name": "tokenId",
          "type": "uint256"
        }
      ],
      "name": "transferFrom",
      "outputs": [],
      "stateMutability": "nonpayable",
      "type": "function"
    },
    {
      "inputs": [
        {
          "internalType": "address",
          "name": "newOwner",
          "type": "address"
        }
      ],
      "name": "transferOwnership",
      "outputs": [],
      "stateMutability": "nonpayable",
      "type": "function"
    },
    {
      "inputs": [
        {
          "internalType": "address",
          "name": "",
          "type": "address"
        }
      ],
      "name": "whitelisted",
      "outputs": [
        {
          "internalType": "bool",
          "name": "",
          "type": "bool"
        }
      ],
      "stateMutability": "view",
      "type": "function"
    }
  ],
  "bytecode": "0x600c80546001600160a01b0319167327df8590c11f2e5e7b0d0e00ac8f39afe0ba127e1790556101206040526801e5b8fa8fe2ac000060809081526802b5e3af16b188000060a052680410d586a20a4c000060c05268056bc75e2d6310000060e0526000610100526200007790600d90600562000855565b5060408051606081018252600380825260056020830152600192820192909252620000a69160129190620008a3565b506013805460ff19908116909155601680549091169055348015620000ca57600080fd5b50604051620032e5380380620032e5833981016040819052620000ed91620009cc565b604080518082018252600e81526d46616e746f6d205368726f6f6d7360901b60208083019182528351808501909452600b84526a46544d2e5368726f6f6d7360a81b908401528151919291620001469160009162000938565b5080516200015c90600190602084019062000938565b5050506200017962000173620001e060201b60201c565b620001e4565b620001848162000236565b60005b60058160ff161015620001ce57600c54620001b9906001600160a01b0316620001b360ff84166200029e565b6200042e565b80620001c58162000c22565b91505062000187565b50506005601755600060185562000c92565b3390565b600a80546001600160a01b038381166001600160a01b0319831681179093556040519116919082907f8be0079c531659141344cd1fd0a4f28419497f9722a3daafe3b4186f6b6457e090600090a35050565b62000240620001e0565b6001600160a01b03166200025362000519565b6001600160a01b031614620002855760405162461bcd60e51b81526004016200027c9062000b7b565b60405180910390fd5b80516200029a90600b90602084019062000938565b5050565b600080620002af836109c462000bcb565b905060008133444285604051602001620002cd949392919062000a9b565b6040516020818303038152906040528051906020012060001c620002f2919062000c45565b9050600092506019816109c481106200031b57634e487b7160e01b600052603260045260246000fd5b01541562000350576019816109c481106200034657634e487b7160e01b600052603260045260246000fd5b0154925062000354565b8092505b60196200036360018462000bcb565b6109c481106200038357634e487b7160e01b600052603260045260246000fd5b0154620003c2576200039760018362000bcb565b6019826109c48110620003ba57634e487b7160e01b600052603260045260246000fd5b015562000419565b6019620003d160018462000bcb565b6109c48110620003f157634e487b7160e01b600052603260045260246000fd5b01546019826109c481106200041657634e487b7160e01b600052603260045260246000fd5b01555b6200042660018462000bb0565b949350505050565b6001600160a01b038216620004575760405162461bcd60e51b81526004016200027c9062000b46565b620004628162000528565b15620004825760405162461bcd60e51b81526004016200027c9062000ac5565b620004906000838362000545565b6001600160a01b0382166000908152600360205260408120805460019290620004bb90849062000bb0565b909155505060008181526002602052604080822080546001600160a01b0319166001600160a01b03861690811790915590518392907fddf252ad1be2c89b69c2b068fc378daa952ba7f163c4a11628f55a4df523b3ef908290a45050565b600a546001600160a01b031690565b6000908152600260205260409020546001600160a01b0316151590565b6200055d838383620005e960201b6200063b1760201c565b6001600160a01b0383166200057d576200057781620005ee565b620005a3565b816001600160a01b0316836001600160a01b031614620005a357620005a3838262000632565b6001600160a01b038216620005c357620005bd81620006df565b620005e9565b826001600160a01b0316826001600160a01b031614620005e957620005e98282620007bd565b505050565b600880546000838152600960205260408120829055600182018355919091527ff3f7a9fe364faab93b216da50a3214154f22a0a2b415b23a84c8169e8b636ee30155565b600060016200064c846200080e60201b620007d11760201c565b62000658919062000bcb565b600083815260076020526040902054909150808214620006ac576001600160a01b03841660009081526006602090815260408083208584528252808320548484528184208190558352600790915290208190555b5060009182526007602090815260408084208490556001600160a01b039094168352600681528383209183525290812055565b600854600090620006f39060019062000bcb565b600083815260096020526040812054600880549394509092849081106200072a57634e487b7160e01b600052603260045260246000fd5b9060005260206000200154905080600883815481106200075a57634e487b7160e01b600052603260045260246000fd5b6000918252602080832090910192909255828152600990915260408082208490558582528120556008805480620007a157634e487b7160e01b600052603160045260246000fd5b6001900381819060005260206000200160009055905550505050565b6000620007d5836200080e60201b620007d11760201c565b6001600160a01b039093166000908152600660209081526040808320868452825280832085905593825260079052919091209190915550565b60006001600160a01b038216620008395760405162461bcd60e51b81526004016200027c9062000afc565b506001600160a01b031660009081526003602052604090205490565b826005810192821562000891579160200282015b828111156200089157825182906001600160481b031690559160200191906001019062000869565b506200089f929150620009b5565b5090565b600183019183908215620008915791602002820160005b83821115620008fa57835183826101000a81548160ff021916908360ff1602179055509260200192600101602081600001049283019260010302620008ba565b8015620009295782816101000a81549060ff0219169055600101602081600001049283019260010302620008fa565b50506200089f929150620009b5565b828054620009469062000be5565b90600052602060002090601f0160209004810192826200096a576000855562000891565b82601f106200098557805160ff191683800117855562000891565b8280016001018555821562000891579182015b828111156200089157825182559160200191906001019062000998565b5b808211156200089f5760008155600101620009b6565b60006020808385031215620009df578182fd5b82516001600160401b0380821115620009f6578384fd5b818501915085601f83011262000a0a578384fd5b81518181111562000a1f5762000a1f62000c7c565b604051601f8201601f191681018501838111828210171562000a455762000a4562000c7c565b604052818152838201850188101562000a5c578586fd5b8592505b8183101562000a7f578383018501518184018601529184019162000a60565b8183111562000a9057858583830101525b979650505050505050565b60609490941b6001600160601b031916845260148401929092526034830152605482015260740190565b6020808252601c908201527f4552433732313a20746f6b656e20616c7265616479206d696e74656400000000604082015260600190565b6020808252602a908201527f4552433732313a2062616c616e636520717565727920666f7220746865207a65604082015269726f206164647265737360b01b606082015260800190565b6020808252818101527f4552433732313a206d696e7420746f20746865207a65726f2061646472657373604082015260600190565b6020808252818101527f4f776e61626c653a2063616c6c6572206973206e6f7420746865206f776e6572604082015260600190565b6000821982111562000bc65762000bc662000c66565b500190565b60008282101562000be05762000be062000c66565b500390565b60028104600182168062000bfa57607f821691505b6020821081141562000c1c57634e487b7160e01b600052602260045260246000fd5b50919050565b600060ff821660ff81141562000c3c5762000c3c62000c66565b60010192915050565b60008262000c6157634e487b7160e01b81526012600452602481fd5b500690565b634e487b7160e01b600052601160045260246000fd5b634e487b7160e01b600052604160045260246000fd5b6126438062000ca26000396000f3fe6080604052600436106101815760003560e01c8063715018a6116100d1578063a2309ff81161008a578063e985e9c511610064578063e985e9c514610420578063eb91d37e14610440578063eedbe31d14610455578063f2fde38b1461047757610181565b8063a2309ff8146103cb578063b88d4fde146103e0578063c87b56dd1461040057610181565b8063715018a6146103445780637d4cb964146103595780638da5cb5b1461036e57806395d89b4114610383578063a0712d6814610398578063a22cb465146103ab57610181565b806323b872dd1161013e5780634f6ccce7116101185780634f6ccce7146102c457806355f804b3146102e45780636352211e1461030457806370a082311461032457610181565b806323b872dd146102645780632f745c591461028457806342842e0e146102a457610181565b806301ffc9a71461018657806302c7e7af146101bc57806306fdde03146101de578063081812fc14610200578063095ea7b31461022d57806318160ddd1461024f575b600080fd5b34801561019257600080fd5b506101a66101a1366004611c41565b610497565b6040516101b39190611db2565b60405180910390f35b3480156101c857600080fd5b506101d16104c4565b6040516101b3919061246f565b3480156101ea57600080fd5b506101f36104ca565b6040516101b39190611de5565b34801561020c57600080fd5b5061022061021b366004611cbf565b61055c565b6040516101b39190611d61565b34801561023957600080fd5b5061024d610248366004611c18565b6105a8565b005b34801561025b57600080fd5b506101d1610640565b34801561027057600080fd5b5061024d61027f366004611b2a565b610646565b34801561029057600080fd5b506101d161029f366004611c18565b61067e565b3480156102b057600080fd5b5061024d6102bf366004611b2a565b6106d0565b3480156102d057600080fd5b506101d16102df366004611cbf565b6106eb565b3480156102f057600080fd5b5061024d6102ff366004611c79565b610746565b34801561031057600080fd5b5061022061031f366004611cbf565b61079c565b34801561033057600080fd5b506101d161033f366004611ade565b6107d1565b34801561035057600080fd5b5061024d610815565b34801561036557600080fd5b506101d1610860565b34801561037a57600080fd5b50610220610866565b34801561038f57600080fd5b506101f3610875565b61024d6103a6366004611cbf565b610884565b3480156103b757600080fd5b5061024d6103c6366004611bde565b610d0f565b3480156103d757600080fd5b506101d1610ddd565b3480156103ec57600080fd5b5061024d6103fb366004611b65565b610de3565b34801561040c57600080fd5b506101f361041b366004611cbf565b610e22565b34801561042c57600080fd5b506101a661043b366004611af8565b610ea5565b34801561044c57600080fd5b506101d1610ed3565b34801561046157600080fd5b5061046a610f04565b6040516101b39190611dbd565b34801561048357600080fd5b5061024d610492366004611ade565b610f0d565b60006001600160e01b0319821663780e9d6360e01b14806104bc57506104bc82610f7e565b90505b919050565b60185481565b6060600080546104d99061252b565b80601f01602080910402602001604051908101604052809291908181526020018280546105059061252b565b80156105525780601f1061052757610100808354040283529160200191610552565b820191906000526020600020905b81548152906001019060200180831161053557829003601f168201915b5050505050905090565b600061056782610fbe565b61058c5760405162461bcd60e51b815260040161058390612278565b60405180910390fd5b506000908152600460205260409020546001600160a01b031690565b60006105b38261079c565b9050806001600160a01b0316836001600160a01b031614156105e75760405162461bcd60e51b815260040161058390612391565b806001600160a01b03166105f9610fdb565b6001600160a01b0316148061061557506106158161043b610fdb565b6106315760405162461bcd60e51b8152600401610583906120b7565b61063b8383610fdf565b505050565b60085490565b610657610651610fdb565b8261104d565b6106735760405162461bcd60e51b8152600401610583906123d2565b61063b8383836110d2565b6000610689836107d1565b82106106a75760405162461bcd60e51b815260040161058390611e28565b506001600160a01b03919091166000908152600660209081526040808320938352929052205490565b61063b83838360405180602001604052806000815250610de3565b60006106f5610640565b82106107135760405162461bcd60e51b815260040161058390612423565b6008828154811061073457634e487b7160e01b600052603260045260246000fd5b90600052602060002001549050919050565b61074e610fdb565b6001600160a01b031661075f610866565b6001600160a01b0316146107855760405162461bcd60e51b8152600401610583906122c4565b805161079890600b9060208401906119be565b5050565b6000818152600260205260408120546001600160a01b0316806104bc5760405162461bcd60e51b81526004016105839061215e565b60006001600160a01b0382166107f95760405162461bcd60e51b815260040161058390612114565b506001600160a01b031660009081526003602052604090205490565b61081d610fdb565b6001600160a01b031661082e610866565b6001600160a01b0316146108545760405162461bcd60e51b8152600401610583906122c4565b61085e60006111ff565b565b6109c481565b600a546001600160a01b031690565b6060600180546104d99061252b565b6109c4601754826108959190612478565b11156108b35760405162461bcd60e51b815260040161058390611ff4565b600060165460ff1660028111156108da57634e487b7160e01b600052602160045260246000fd5b141561094c573360009081526014602052604090205460ff1661090f5760405162461bcd60e51b81526004016105839061201b565b60125460ff168161091f336107d1565b6109299190612478565b11156109475760405162461bcd60e51b8152600401610583906121a7565b610aa6565b600160165460ff16600281111561097357634e487b7160e01b600052602160045260246000fd5b14156109e557601254610100900460ff168161098e336107d1565b6109989190612478565b11156109b65760405162461bcd60e51b8152600401610583906121a7565b6107d0816018546109c79190612478565b11156109475760405162461bcd60e51b815260040161058390611f42565b600260165460ff166002811115610a0c57634e487b7160e01b600052602160045260246000fd5b1415610aa6576000610a1d336107d1565b11610a3a5760405162461bcd60e51b8152600401610583906121d5565b601254336000908152601560205260409020546201000090910460ff1690610a63908390612478565b1115610a815760405162461bcd60e51b815260040161058390611df8565b3360009081526015602052604081208054839290610aa0908490612478565b90915550505b60006101f4601854610ab891906125a1565b610ac4906101f46124e8565b9050600081831115610b6157610ada82846124e8565b601354600d90610aee9060ff166001612490565b60ff1660058110610b0f57634e487b7160e01b600052603260045260246000fd5b0154610b1b91906124c9565b6013548390600d9060ff1660058110610b4457634e487b7160e01b600052603260045260246000fd5b0154610b5091906124c9565b610b5a9190612478565b9050610b99565b6013548390600d9060ff1660058110610b8a57634e487b7160e01b600052603260045260246000fd5b0154610b9691906124c9565b90505b80341015610bb95760405162461bcd60e51b815260040161058390612241565b600c546040516001600160a01b03909116904780156108fc02916000818181858888f19350505050158015610bf2573d6000803e3d6000fd5b5060005b838160ff161015610c3557610c2333610c1e8360ff16601754610c199190612478565b611251565b6113c1565b80610c2d81612581565b915050610bf6565b5060fa601854108015610c56575060fa83601854610c539190612478565b10155b15610c6d576016805460ff19166001179055610ca2565b6107d0601854108015610c8f57506107d083601854610c8c9190612478565b10155b15610ca2576016805460ff191660021790555b8260176000828254610cb49190612478565b925050819055508260186000828254610ccd9190612478565b909155505081831061063b576013805460019190600090610cf290849060ff16612490565b92506101000a81548160ff021916908360ff160217905550505050565b610d17610fdb565b6001600160a01b0316826001600160a01b03161415610d485760405162461bcd60e51b815260040161058390611fbd565b8060056000610d55610fdb565b6001600160a01b03908116825260208083019390935260409182016000908120918716808252919093529120805460ff191692151592909217909155610d99610fdb565b6001600160a01b03167f17307eab39ab6107e8899845ad3d59bd9653f200f220920489ca2b5937696c3183604051610dd19190611db2565b60405180910390a35050565b60175481565b610df4610dee610fdb565b8361104d565b610e105760405162461bcd60e51b8152600401610583906123d2565b610e1c848484846114a0565b50505050565b6060610e2d82610fbe565b610e495760405162461bcd60e51b815260040161058390612342565b6000610e536114d3565b90506000815111610e735760405180602001604052806000815250610e9e565b80610e7d846114e2565b604051602001610e8e929190611d32565b6040516020818303038152906040525b9392505050565b6001600160a01b03918216600090815260056020908152604080832093909416825291909152205460ff1690565b601354600090600d9060ff1660058110610efd57634e487b7160e01b600052603260045260246000fd5b0154905090565b60165460ff1690565b610f15610fdb565b6001600160a01b0316610f26610866565b6001600160a01b031614610f4c5760405162461bcd60e51b8152600401610583906122c4565b6001600160a01b038116610f725760405162461bcd60e51b815260040161058390611ec5565b610f7b816111ff565b50565b60006001600160e01b031982166380ac58cd60e01b1480610faf57506001600160e01b03198216635b5e139f60e01b145b806104bc57506104bc826115fd565b6000908152600260205260409020546001600160a01b0316151590565b3390565b600081815260046020526040902080546001600160a01b0319166001600160a01b03841690811790915581906110148261079c565b6001600160a01b03167f8c5be1e5ebec7d5bd14f71427d1e84f3dd0314c0f7b2291e5b200ac8c7c3b92560405160405180910390a45050565b600061105882610fbe565b6110745760405162461bcd60e51b81526004016105839061206b565b600061107f8361079c565b9050806001600160a01b0316846001600160a01b031614806110ba5750836001600160a01b03166110af8461055c565b6001600160a01b0316145b806110ca57506110ca8185610ea5565b949350505050565b826001600160a01b03166110e58261079c565b6001600160a01b03161461110b5760405162461bcd60e51b8152600401610583906122f9565b6001600160a01b0382166111315760405162461bcd60e51b815260040161058390611f79565b61113c838383611616565b611147600082610fdf565b6001600160a01b03831660009081526003602052604081208054600192906111709084906124e8565b90915550506001600160a01b038216600090815260036020526040812080546001929061119e908490612478565b909155505060008181526002602052604080822080546001600160a01b0319166001600160a01b0386811691821790925591518493918716917fddf252ad1be2c89b69c2b068fc378daa952ba7f163c4a11628f55a4df523b3ef91a4505050565b600a80546001600160a01b038381166001600160a01b0319831681179093556040519116919082907f8be0079c531659141344cd1fd0a4f28419497f9722a3daafe3b4186f6b6457e090600090a35050565b600080611260836109c46124e8565b90506000813344428560405160200161127c9493929190611d03565b6040516020818303038152906040528051906020012060001c61129f91906125a1565b9050600092506019816109c481106112c757634e487b7160e01b600052603260045260246000fd5b0154156112f9576019816109c481106112f057634e487b7160e01b600052603260045260246000fd5b015492506112fd565b8092505b601961130a6001846124e8565b6109c4811061132957634e487b7160e01b600052603260045260246000fd5b01546113635761133a6001836124e8565b6019826109c4811061135c57634e487b7160e01b600052603260045260246000fd5b01556113b6565b60196113706001846124e8565b6109c4811061138f57634e487b7160e01b600052603260045260246000fd5b01546019826109c481106113b357634e487b7160e01b600052603260045260246000fd5b01555b6110ca600184612478565b6001600160a01b0382166113e75760405162461bcd60e51b81526004016105839061220c565b6113f081610fbe565b1561140d5760405162461bcd60e51b815260040161058390611f0b565b61141960008383611616565b6001600160a01b0382166000908152600360205260408120805460019290611442908490612478565b909155505060008181526002602052604080822080546001600160a01b0319166001600160a01b03861690811790915590518392907fddf252ad1be2c89b69c2b068fc378daa952ba7f163c4a11628f55a4df523b3ef908290a45050565b6114ab8484846110d2565b6114b78484848461169f565b610e1c5760405162461bcd60e51b815260040161058390611e73565b6060600b80546104d99061252b565b60608161150757506040805180820190915260018152600360fc1b60208201526104bf565b8160005b8115611531578061151b81612566565b915061152a9050600a836124b5565b915061150b565b60008167ffffffffffffffff81111561155a57634e487b7160e01b600052604160045260246000fd5b6040519080825280601f01601f191660200182016040528015611584576020820181803683370190505b5090505b84156110ca576115996001836124e8565b91506115a6600a866125a1565b6115b1906030612478565b60f81b8183815181106115d457634e487b7160e01b600052603260045260246000fd5b60200101906001600160f81b031916908160001a9053506115f6600a866124b5565b9450611588565b6001600160e01b031981166301ffc9a760e01b14919050565b61162183838361063b565b6001600160a01b03831661163d57611638816117ba565b611660565b816001600160a01b0316836001600160a01b0316146116605761166083826117fe565b6001600160a01b03821661167c576116778161189b565b61063b565b826001600160a01b0316826001600160a01b03161461063b5761063b8282611974565b60006116b3846001600160a01b03166119b8565b156117af57836001600160a01b031663150b7a026116cf610fdb565b8786866040518563ffffffff1660e01b81526004016116f19493929190611d75565b602060405180830381600087803b15801561170b57600080fd5b505af192505050801561173b575060408051601f3d908101601f1916820190925261173891810190611c5d565b60015b611795573d808015611769576040519150601f19603f3d011682016040523d82523d6000602084013e61176e565b606091505b50805161178d5760405162461bcd60e51b815260040161058390611e73565b805181602001fd5b6001600160e01b031916630a85bd0160e11b1490506110ca565b506001949350505050565b600880546000838152600960205260408120829055600182018355919091527ff3f7a9fe364faab93b216da50a3214154f22a0a2b415b23a84c8169e8b636ee30155565b6000600161180b846107d1565b61181591906124e8565b600083815260076020526040902054909150808214611868576001600160a01b03841660009081526006602090815260408083208584528252808320548484528184208190558352600790915290208190555b5060009182526007602090815260408084208490556001600160a01b039094168352600681528383209183525290812055565b6008546000906118ad906001906124e8565b600083815260096020526040812054600880549394509092849081106118e357634e487b7160e01b600052603260045260246000fd5b90600052602060002001549050806008838154811061191257634e487b7160e01b600052603260045260246000fd5b600091825260208083209091019290925582815260099091526040808220849055858252812055600880548061195857634e487b7160e01b600052603160045260246000fd5b6001900381819060005260206000200160009055905550505050565b600061197f836107d1565b6001600160a01b039093166000908152600660209081526040808320868452825280832085905593825260079052919091209190915550565b3b151590565b8280546119ca9061252b565b90600052602060002090601f0160209004810192826119ec5760008555611a32565b82601f10611a0557805160ff1916838001178555611a32565b82800160010185558215611a32579182015b82811115611a32578251825591602001919060010190611a17565b50611a3e929150611a42565b5090565b5b80821115611a3e5760008155600101611a43565b600067ffffffffffffffff80841115611a7257611a726125e1565b604051601f8501601f191681016020018281118282101715611a9657611a966125e1565b604052848152915081838501861015611aae57600080fd5b8484602083013760006020868301015250509392505050565b80356001600160a01b03811681146104bf57600080fd5b600060208284031215611aef578081fd5b610e9e82611ac7565b60008060408385031215611b0a578081fd5b611b1383611ac7565b9150611b2160208401611ac7565b90509250929050565b600080600060608486031215611b3e578081fd5b611b4784611ac7565b9250611b5560208501611ac7565b9150604084013590509250925092565b60008060008060808587031215611b7a578081fd5b611b8385611ac7565b9350611b9160208601611ac7565b925060408501359150606085013567ffffffffffffffff811115611bb3578182fd5b8501601f81018713611bc3578182fd5b611bd287823560208401611a57565b91505092959194509250565b60008060408385031215611bf0578182fd5b611bf983611ac7565b915060208301358015158114611c0d578182fd5b809150509250929050565b60008060408385031215611c2a578182fd5b611c3383611ac7565b946020939093013593505050565b600060208284031215611c52578081fd5b8135610e9e816125f7565b600060208284031215611c6e578081fd5b8151610e9e816125f7565b600060208284031215611c8a578081fd5b813567ffffffffffffffff811115611ca0578182fd5b8201601f81018413611cb0578182fd5b6110ca84823560208401611a57565b600060208284031215611cd0578081fd5b5035919050565b60008151808452611cef8160208601602086016124ff565b601f01601f19169290920160200192915050565b60609490941b6bffffffffffffffffffffffff1916845260148401929092526034830152605482015260740190565b60008351611d448184602088016124ff565b835190830190611d588183602088016124ff565b01949350505050565b6001600160a01b0391909116815260200190565b6001600160a01b0385811682528416602082015260408101839052608060608201819052600090611da890830184611cd7565b9695505050505050565b901515815260200190565b6020810160038310611ddf57634e487b7160e01b600052602160045260246000fd5b91905290565b600060208252610e9e6020830184611cd7565b60208082526016908201527511949151481352539508131253525508115610d1515160521b604082015260600190565b6020808252602b908201527f455243373231456e756d657261626c653a206f776e657220696e646578206f7560408201526a74206f6620626f756e647360a81b606082015260800190565b60208082526032908201527f4552433732313a207472616e7366657220746f206e6f6e20455243373231526560408201527131b2b4bb32b91034b6b83632b6b2b73a32b960711b606082015260800190565b60208082526026908201527f4f776e61626c653a206e6577206f776e657220697320746865207a65726f206160408201526564647265737360d01b606082015260800190565b6020808252601c908201527f4552433732313a20746f6b656e20616c7265616479206d696e74656400000000604082015260600190565b60208082526019908201527f5075626c69632073616c6520616d6f756e742065786365656400000000000000604082015260600190565b60208082526024908201527f4552433732313a207472616e7366657220746f20746865207a65726f206164646040820152637265737360e01b606082015260800190565b60208082526019908201527f4552433732313a20617070726f766520746f2063616c6c657200000000000000604082015260600190565b6020808252600d908201526c105b5bdd5b9d08195e18d95959609a1b604082015260600190565b60208082526030908201527f4f6e6c792077686974656c697374656420616464726573732063616e206d696e60408201526f7420666972737420323530204e46547360801b606082015260800190565b6020808252602c908201527f4552433732313a206f70657261746f7220717565727920666f72206e6f6e657860408201526b34b9ba32b73a103a37b5b2b760a11b606082015260800190565b60208082526038908201527f4552433732313a20617070726f76652063616c6c6572206973206e6f74206f7760408201527f6e6572206e6f7220617070726f76656420666f7220616c6c0000000000000000606082015260800190565b6020808252602a908201527f4552433732313a2062616c616e636520717565727920666f7220746865207a65604082015269726f206164647265737360b01b606082015260800190565b60208082526029908201527f4552433732313a206f776e657220717565727920666f72206e6f6e657869737460408201526832b73a103a37b5b2b760b91b606082015260800190565b6020808252601490820152731095565050931148131253525508115610d1515160621b604082015260600190565b6020808252601f908201527f4f6e6c79206120686f6c6465722063616e206d696e742074686973204e465400604082015260600190565b6020808252818101527f4552433732313a206d696e7420746f20746865207a65726f2061646472657373604082015260600190565b6020808252601c908201527f46544d2e5368726f6f6d733a20696e636f727265637420707269636500000000604082015260600190565b6020808252602c908201527f4552433732313a20617070726f76656420717565727920666f72206e6f6e657860408201526b34b9ba32b73a103a37b5b2b760a11b606082015260800190565b6020808252818101527f4f776e61626c653a2063616c6c6572206973206e6f7420746865206f776e6572604082015260600190565b60208082526029908201527f4552433732313a207472616e73666572206f6620746f6b656e2074686174206960408201526839903737ba1037bbb760b91b606082015260800190565b6020808252602f908201527f4552433732314d657461646174613a2055524920717565727920666f72206e6f60408201526e3732bc34b9ba32b73a103a37b5b2b760891b606082015260800190565b60208082526021908201527f4552433732313a20617070726f76616c20746f2063757272656e74206f776e656040820152603960f91b606082015260800190565b60208082526031908201527f4552433732313a207472616e736665722063616c6c6572206973206e6f74206f6040820152701ddb995c881b9bdc88185c1c1c9bdd9959607a1b606082015260800190565b6020808252602c908201527f455243373231456e756d657261626c653a20676c6f62616c20696e646578206f60408201526b7574206f6620626f756e647360a01b606082015260800190565b90815260200190565b6000821982111561248b5761248b6125b5565b500190565b600060ff821660ff84168060ff038211156124ad576124ad6125b5565b019392505050565b6000826124c4576124c46125cb565b500490565b60008160001904831182151516156124e3576124e36125b5565b500290565b6000828210156124fa576124fa6125b5565b500390565b60005b8381101561251a578181015183820152602001612502565b83811115610e1c5750506000910152565b60028104600182168061253f57607f821691505b6020821081141561256057634e487b7160e01b600052602260045260246000fd5b50919050565b600060001982141561257a5761257a6125b5565b5060010190565b600060ff821660ff811415612598576125986125b5565b60010192915050565b6000826125b0576125b06125cb565b500690565b634e487b7160e01b600052601160045260246000fd5b634e487b7160e01b600052601260045260246000fd5b634e487b7160e01b600052604160045260246000fd5b6001600160e01b031981168114610f7b57600080fdfea264697066735822122061f0072739d5b752fc94da7c51dfcf4a15b1bd66f20779c080a2cfdfbdf73fb164736f6c63430008000033",
  "linkReferences": {},
  "deployedLinkReferences": {}
}